{
  "contractName": "FreelanceMarketplace",
  "abi": [
    {
      "anonymous": false,
      "inputs": [
        {
          "indexed": true,
          "internalType": "uint256",
          "name": "serviceId",
          "type": "uint256"
        },
        {
          "indexed": true,
          "internalType": "address",
          "name": "client",
          "type": "address"
        },
        {
          "indexed": false,
          "internalType": "uint256",
          "name": "amount",
          "type": "uint256"
        }
      ],
      "name": "ClientRefunded",
      "type": "event"
    },
    {
      "anonymous": false,
      "inputs": [
        {
          "indexed": true,
          "internalType": "uint256",
          "name": "serviceId",
          "type": "uint256"
        },
        {
          "indexed": true,
          "internalType": "address",
          "name": "client",
          "type": "address"
        }
      ],
      "name": "FreelancerHired",
      "type": "event"
    },
    {
      "anonymous": false,
      "inputs": [
        {
          "indexed": true,
          "internalType": "uint256",
          "name": "serviceId",
          "type": "uint256"
        },
        {
          "indexed": true,
          "internalType": "address",
          "name": "freelancer",
          "type": "address"
        },
        {
          "indexed": false,
          "internalType": "uint256",
          "name": "amount",
          "type": "uint256"
        }
      ],
      "name": "PaymentReleased",
      "type": "event"
    },
    {
      "anonymous": false,
      "inputs": [
        {
          "indexed": true,
          "internalType": "uint256",
          "name": "serviceId",
          "type": "uint256"
        },
        {
          "indexed": true,
          "internalType": "address",
          "name": "freelancer",
          "type": "address"
        },
        {
          "indexed": false,
          "internalType": "string",
          "name": "title",
          "type": "string"
        },
        {
          "indexed": false,
          "internalType": "string",
          "name": "description",
          "type": "string"
        },
        {
          "indexed": false,
          "internalType": "uint256",
          "name": "price",
          "type": "uint256"
        },
        {
          "indexed": false,
          "internalType": "uint256",
          "name": "deadline",
          "type": "uint256"
        }
      ],
      "name": "ServiceOffered",
      "type": "event"
    },
    {
      "anonymous": false,
      "inputs": [
        {
          "indexed": true,
          "internalType": "uint256",
          "name": "serviceId",
          "type": "uint256"
        },
        {
          "indexed": true,
          "internalType": "address",
          "name": "client",
          "type": "address"
        },
        {
          "indexed": false,
          "internalType": "uint8",
          "name": "rating",
          "type": "uint8"
        }
      ],
      "name": "ServiceRated",
      "type": "event"
    },
    {
      "inputs": [
        {
          "internalType": "uint256",
          "name": "",
          "type": "uint256"
        }
      ],
      "name": "escrowedFunds",
      "outputs": [
        {
          "internalType": "uint256",
          "name": "",
          "type": "uint256"
        }
      ],
      "stateMutability": "view",
      "type": "function",
      "constant": true
    },
    {
      "inputs": [
        {
          "internalType": "address",
          "name": "",
          "type": "address"
        }
      ],
      "name": "freelancerRatings",
      "outputs": [
        {
          "internalType": "uint256",
          "name": "total",
          "type": "uint256"
        },
        {
          "internalType": "uint256",
          "name": "count",
          "type": "uint256"
        }
      ],
      "stateMutability": "view",
      "type": "function",
      "constant": true
    },
    {
      "inputs": [
        {
          "internalType": "uint256",
          "name": "",
          "type": "uint256"
        }
      ],
      "name": "services",
      "outputs": [
        {
          "internalType": "uint256",
          "name": "id",
          "type": "uint256"
        },
        {
          "internalType": "uint256",
          "name": "price",
          "type": "uint256"
        },
        {
          "internalType": "uint256",
          "name": "deadline",
          "type": "uint256"
        },
        {
          "internalType": "address",
          "name": "freelancer",
          "type": "address"
        },
        {
          "internalType": "address",
          "name": "client",
          "type": "address"
        },
        {
          "internalType": "uint8",
          "name": "rating",
          "type": "uint8"
        },
        {
          "internalType": "bool",
          "name": "isActive",
          "type": "bool"
        },
        {
          "internalType": "bool",
          "name": "isPaid",
          "type": "bool"
        },
        {
          "internalType": "string",
          "name": "title",
          "type": "string"
        },
        {
          "internalType": "string",
          "name": "description",
          "type": "string"
        }
      ],
      "stateMutability": "view",
      "type": "function",
      "constant": true
    },
    {
      "inputs": [
        {
          "internalType": "string",
          "name": "_title",
          "type": "string"
        },
        {
          "internalType": "string",
          "name": "_description",
          "type": "string"
        },
        {
          "internalType": "uint256",
          "name": "_price",
          "type": "uint256"
        },
        {
          "internalType": "uint256",
          "name": "_deadline",
          "type": "uint256"
        }
      ],
      "name": "offerService",
      "outputs": [
        {
          "internalType": "uint256",
          "name": "",
          "type": "uint256"
        }
      ],
      "stateMutability": "nonpayable",
      "type": "function"
    },
    {
      "inputs": [
        {
          "internalType": "uint256",
          "name": "_serviceId",
          "type": "uint256"
        }
      ],
      "name": "hireFreelancer",
      "outputs": [],
      "stateMutability": "payable",
      "type": "function",
      "payable": true
    },
    {
      "inputs": [
        {
          "internalType": "uint256",
          "name": "_serviceId",
          "type": "uint256"
        }
      ],
      "name": "releasePayment",
      "outputs": [],
      "stateMutability": "nonpayable",
      "type": "function"
    },
    {
      "inputs": [
        {
          "internalType": "uint256",
          "name": "_serviceId",
          "type": "uint256"
        }
      ],
      "name": "refundClient",
      "outputs": [],
      "stateMutability": "nonpayable",
      "type": "function"
    },
    {
      "inputs": [
        {
          "internalType": "uint256",
          "name": "_serviceId",
          "type": "uint256"
        },
        {
          "internalType": "uint8",
          "name": "_rating",
          "type": "uint8"
        }
      ],
      "name": "rateService",
      "outputs": [],
      "stateMutability": "nonpayable",
      "type": "function"
    },
    {
      "inputs": [
        {
          "internalType": "address",
          "name": "_freelancer",
          "type": "address"
        }
      ],
      "name": "getAverageRating",
      "outputs": [
        {
          "internalType": "uint256",
          "name": "",
          "type": "uint256"
        }
      ],
      "stateMutability": "view",
      "type": "function",
      "constant": true
    },
    {
      "inputs": [
        {
          "internalType": "address",
          "name": "_freelancer",
          "type": "address"
        }
      ],
      "name": "getRatingCount",
      "outputs": [
        {
          "internalType": "uint256",
          "name": "",
          "type": "uint256"
        }
      ],
      "stateMutability": "view",
      "type": "function",
      "constant": true
    },
    {
      "inputs": [],
      "name": "getServiceCount",
      "outputs": [
        {
          "internalType": "uint256",
          "name": "",
          "type": "uint256"
        }
      ],
      "stateMutability": "view",
      "type": "function",
      "constant": true
    }
  ],
  "bytecode": "0x608060405234801561001057600080fd5b506001600055611524806100256000396000f3fe60806040526004361061009c5760003560e01c806388685cd91161006457806388685cd914610174578063b489e14714610194578063c22c4f43146101c1578063c8b67522146101f7578063ddd710da14610217578063ecdb12351461022a57600080fd5b80630ee26478146100a15780631a47acab146100d457806327db21e1146100f65780633672404e1461013f57806343eed51c14610154575b600080fd5b3480156100ad57600080fd5b506100c16100bc366004611138565b610263565b6040519081526020015b60405180910390f35b3480156100e057600080fd5b506100f46100ef3660046111ac565b6105a6565b005b34801561010257600080fd5b5061012a6101113660046111e2565b6004602052600090815260409020805460019091015482565b604080519283526020830191909152016100cb565b34801561014b57600080fd5b506001546100c1565b34801561016057600080fd5b506100f461016f36600461120b565b6107ff565b34801561018057600080fd5b506100f461018f36600461120b565b610a8b565b3480156101a057600080fd5b506100c16101af36600461120b565b60036020526000908152604090205481565b3480156101cd57600080fd5b506101e16101dc36600461120b565b610caa565b6040516100cb9a9998979695949392919061126a565b34801561020357600080fd5b506100c16102123660046111e2565b610e27565b6100f461022536600461120b565b610e80565b34801561023657600080fd5b506100c16102453660046111e2565b6001600160a01b031660009081526004602052604090206001015490565b6000808551116102b25760405162461bcd60e51b81526020600482015260156024820152745469746c652063616e6e6f7420626520656d70747960581b60448201526064015b60405180910390fd5b60008451116103035760405162461bcd60e51b815260206004820152601b60248201527f4465736372697074696f6e2063616e6e6f7420626520656d707479000000000060448201526064016102a9565b600083116103535760405162461bcd60e51b815260206004820152601c60248201527f5072696365206d7573742062652067726561746572207468616e20300000000060448201526064016102a9565b600082116103a35760405162461bcd60e51b815260206004820152601e60248201527f446561646c696e65206d75737420626520696e2074686520667574757265000060448201526064016102a9565b60015460006103b58462015180611301565b6103bf904261131e565b9050604051806101400160405280838152602001868152602001828152602001336001600160a01b0316815260200160006001600160a01b03168152602001600060ff168152602001600115158152602001600015158152602001888152602001878152506002600084815260200190815260200160002060008201518160000155602082015181600101556040820151816002015560608201518160030160006101000a8154816001600160a01b0302191690836001600160a01b0316021790555060808201518160040160006101000a8154816001600160a01b0302191690836001600160a01b0316021790555060a08201518160040160146101000a81548160ff021916908360ff16021790555060c08201518160040160156101000a81548160ff02191690831515021790555060e08201518160040160166101000a81548160ff02191690831515021790555061010082015181600501908161052691906113ba565b50610120820151600682019061053c90826113ba565b5050600180549150600061054f8361147a565b9190505550336001600160a01b0316827f0ded474cb11b41ae30c1c580757c4db03db9f593d09f0d4d2e93e1c6e29dd417898989896040516105949493929190611493565b60405180910390a35095945050505050565b6105ae61103c565b600082815260026020526040902060048101546001600160a01b031633146106185760405162461bcd60e51b815260206004820181905260248201527f4f6e6c7920636c69656e742063616e207261746520746865207365727669636560448201526064016102a9565b6004810154600160b01b900460ff166106735760405162461bcd60e51b815260206004820181905260248201527f53657276696365207061796d656e74206e6f742072656c65617365642079657460448201526064016102a9565b60018260ff161015801561068b575060058260ff1611155b6106d75760405162461bcd60e51b815260206004820152601e60248201527f526174696e67206d757374206265206265747765656e203120616e642035000060448201526064016102a9565b6004810154600160a01b900460ff161561072b5760405162461bcd60e51b815260206004820152601560248201527414d95c9d9a58d948185b1c9958591e481c985d1959605a1b60448201526064016102a9565b6004818101805460ff60a01b1916600160a01b60ff86169081029190911790915560038301546001600160a01b031660009081526020929092526040822080549192909161077a90849061131e565b909155505060038101546001600160a01b0316600090815260046020526040812060019081018054919290916107b190849061131e565b909155505060405160ff83168152339084907f4cfadb3896f7fc5de5413d3b196cab452ba6d0b2fe92b8a9b6c27a576eba8d379060200160405180910390a3506107fb6001600055565b5050565b61080761103c565b600081815260026020526040902060048101546001600160a01b031633146108715760405162461bcd60e51b815260206004820152601e60248201527f4f6e6c7920636c69656e742063616e207265717565737420726566756e64000060448201526064016102a9565b6004810154600160b01b900460ff16156108c85760405162461bcd60e51b815260206004820152601860248201527714185e5b595b9d08185b1c9958591e481c995b19585cd95960421b60448201526064016102a9565b6000828152600360205260409020546109185760405162461bcd60e51b81526020600482015260126024820152714e6f2066756e647320696e20657363726f7760701b60448201526064016102a9565b4281600201541061097f5760405162461bcd60e51b815260206004820152602b60248201527f526566756e647320776f6e277420626520697373756564206265666f7265207460448201526a686520646561646c696e6560a81b60648201526084016102a9565b60008281526003602052604080822080549083905560048401805460ff60a81b19811690915591519092916001600160a01b03169083908381818185875af1925050503d80600081146109ee576040519150601f19603f3d011682016040523d82523d6000602084013e6109f3565b606091505b5050905080610a345760405162461bcd60e51b815260206004820152600d60248201526c1499599d5b990819985a5b1959609a1b60448201526064016102a9565b60048301546040518381526001600160a01b039091169085907f710864ae79ae7195dbcaa0f79eef4a8f5b490696c2d588a27f4d69ce60ac01fc906020015b60405180910390a3505050610a886001600055565b50565b610a9361103c565b600081815260026020526040902060048101546001600160a01b03163314610afd5760405162461bcd60e51b815260206004820152601f60248201527f4f6e6c7920636c69656e742063616e2072656c65617365207061796d656e740060448201526064016102a9565b6004810154600160b01b900460ff1615610b545760405162461bcd60e51b815260206004820152601860248201527714185e5b595b9d08185b1c9958591e481c995b19585cd95960421b60448201526064016102a9565b600082815260036020526040902054610ba45760405162461bcd60e51b81526020600482015260126024820152714e6f2066756e647320696e20657363726f7760701b60448201526064016102a9565b600082815260036020819052604080832080549084905560048501805461ffff60a81b1916600160b01b1790559184015490519192916001600160a01b039091169083908381818185875af1925050503d8060008114610c20576040519150601f19603f3d011682016040523d82523d6000602084013e610c25565b606091505b5050905080610c675760405162461bcd60e51b815260206004820152600e60248201526d14185e5b595b9d0819985a5b195960921b60448201526064016102a9565b60038301546040518381526001600160a01b039091169085907f21d71db5be59bb9fa133895586b7404307dd33fb93b16db09dc6f1d9d7d231b090602001610a73565b600260208190526000918252604090912080546001820154928201546003830154600484015460058501805494969593946001600160a01b03938416949383169360ff600160a01b8504811694600160a81b8104821694600160b01b90910490911692610d1690611331565b80601f0160208091040260200160405190810160405280929190818152602001828054610d4290611331565b8015610d8f5780601f10610d6457610100808354040283529160200191610d8f565b820191906000526020600020905b815481529060010190602001808311610d7257829003601f168201915b505050505090806006018054610da490611331565b80601f0160208091040260200160405190810160405280929190818152602001828054610dd090611331565b8015610e1d5780601f10610df257610100808354040283529160200191610e1d565b820191906000526020600020905b815481529060010190602001808311610e0057829003601f168201915b505050505090508a565b6001600160a01b038116600090815260046020908152604080832081518083019092528054825260010154918101829052908203610e685750600092915050565b60208101518151610e7991906114cc565b9392505050565b610e8861103c565b600081815260026020526040902060038101546001600160a01b0316610ee95760405162461bcd60e51b815260206004820152601660248201527514d95c9d9a58d948191bd95cc81b9bdd08195e1a5cdd60521b60448201526064016102a9565b6004810154600160a81b900460ff16610f3c5760405162461bcd60e51b815260206004820152601560248201527453657276696365206973206e6f742061637469766560581b60448201526064016102a9565b60048101546001600160a01b031615610f8f5760405162461bcd60e51b815260206004820152601560248201527414d95c9d9a58d948185b1c9958591e481a1a5c9959605a1b60448201526064016102a9565b80600101543414610fe25760405162461bcd60e51b815260206004820181905260248201527f5061796d656e74206d757374206d61746368207365727669636520707269636560448201526064016102a9565b6004810180546001600160a01b031916339081179091556000838152600360205260408082203490555184917f275ab44b0c246a31e80d4be1133500786fb735dd528a1c8dbd0245896c6b142191a350610a886001600055565b60026000540361108e5760405162461bcd60e51b815260206004820152601f60248201527f5265656e7472616e637947756172643a207265656e7472616e742063616c6c0060448201526064016102a9565b6002600055565b634e487b7160e01b600052604160045260246000fd5b600082601f8301126110bc57600080fd5b813567ffffffffffffffff808211156110d7576110d7611095565b604051601f8301601f19908116603f011681019082821181831017156110ff576110ff611095565b8160405283815286602085880101111561111857600080fd5b836020870160208301376000602085830101528094505050505092915050565b6000806000806080858703121561114e57600080fd5b843567ffffffffffffffff8082111561116657600080fd5b611172888389016110ab565b9550602087013591508082111561118857600080fd5b50611195878288016110ab565b949794965050505060408301359260600135919050565b600080604083850312156111bf57600080fd5b82359150602083013560ff811681146111d757600080fd5b809150509250929050565b6000602082840312156111f457600080fd5b81356001600160a01b0381168114610e7957600080fd5b60006020828403121561121d57600080fd5b5035919050565b6000815180845260005b8181101561124a5760208185018101518683018201520161122e565b506000602082860101526020601f19601f83011685010191505092915050565b8a8152602081018a9052604081018990526001600160a01b0388811660608301528716608082015260ff861660a082015284151560c082015283151560e082015261014061010082018190526000906112c583820186611224565b90508281036101208401526112da8185611224565b9d9c50505050505050505050505050565b634e487b7160e01b600052601160045260246000fd5b8082028115828204841417611318576113186112eb565b92915050565b80820180821115611318576113186112eb565b600181811c9082168061134557607f821691505b60208210810361136557634e487b7160e01b600052602260045260246000fd5b50919050565b601f8211156113b557600081815260208120601f850160051c810160208610156113925750805b601f850160051c820191505b818110156113b15782815560010161139e565b5050505b505050565b815167ffffffffffffffff8111156113d4576113d4611095565b6113e8816113e28454611331565b8461136b565b602080601f83116001811461141d57600084156114055750858301515b600019600386901b1c1916600185901b1785556113b1565b600085815260208120601f198616915b8281101561144c5788860151825594840194600190910190840161142d565b508582101561146a5787850151600019600388901b60f8161c191681555b5050505050600190811b01905550565b60006001820161148c5761148c6112eb565b5060010190565b6080815260006114a66080830187611224565b82810360208401526114b88187611224565b604084019590955250506060015292915050565b6000826114e957634e487b7160e01b600052601260045260246000fd5b50049056fea2646970667358221220aaf7101b970b0d428a33ffaec17040b3dba19a82f55c65ca3168767395ac5f0264736f6c63430008110033",
  "immutableReferences": {},
  "source": "// SPDX-License-Identifier: MIT\r\npragma solidity ^0.8.0;\r\n\r\nimport \"@openzeppelin/contracts/security/ReentrancyGuard.sol\";\r\n\r\ncontract FreelanceMarketplace is ReentrancyGuard {\r\n    struct Service {\r\n        uint256 id;\r\n        uint256 price;\r\n        uint256 deadline;\r\n        address freelancer;\r\n        address client;\r\n        uint8 rating;\r\n        bool isActive;\r\n        bool isPaid;\r\n        string title;\r\n        string description;\r\n    }\r\n\r\n    struct FreelancerRating {\r\n        uint256 total;\r\n        uint256 count;\r\n    }\r\n\r\n    uint256 private serviceCounter;\r\n\r\n    mapping(uint256 => Service) public services;\r\n\r\n    mapping(uint256 => uint256) public escrowedFunds;\r\n\r\n    mapping(address => FreelancerRating) public freelancerRatings;\r\n\r\n    event ServiceOffered(\r\n        uint256 indexed serviceId,\r\n        address indexed freelancer,\r\n        string title,\r\n        string description,\r\n        uint256 price,\r\n        uint256 deadline\r\n    );\r\n    event FreelancerHired(uint256 indexed serviceId, address indexed client);\r\n    event PaymentReleased(\r\n        uint256 indexed serviceId,\r\n        address indexed freelancer,\r\n        uint256 amount\r\n    );\r\n    event ClientRefunded(\r\n        uint256 indexed serviceId,\r\n        address indexed client,\r\n        uint256 amount\r\n    );\r\n    event ServiceRated(\r\n        uint256 indexed serviceId,\r\n        address indexed client,\r\n        uint8 rating\r\n    );\r\n\r\n    /**\r\n     * @dev Allows freelancers to list their services\r\n     * @param _title Short service title\r\n     * @param _price Service cost in wei\r\n     * @param _description Description of the service\r\n     * @param _deadline Deadline in days from creation\r\n     */\r\n    function offerService(\r\n        string memory _title,\r\n        string memory _description,\r\n        uint256 _price,\r\n        uint256 _deadline\r\n    ) external returns (uint256) {\r\n        require(bytes(_title).length > 0, \"Title cannot be empty\");\r\n        require(bytes(_description).length > 0, \"Description cannot be empty\");\r\n        require(_price > 0, \"Price must be greater than 0\");\r\n        require(_deadline > 0, \"Deadline must be in the future\");\r\n\r\n        uint256 serviceId = serviceCounter;\r\n        uint256 deadlineTimestamp = block.timestamp + (_deadline * 1 days);\r\n\r\n        services[serviceId] = Service({\r\n            id: serviceId,\r\n            freelancer: msg.sender,\r\n            client: address(0),\r\n            title: _title,\r\n            description: _description,\r\n            price: _price,\r\n            isActive: true,\r\n            isPaid: false,\r\n            rating: 0,\r\n            deadline: deadlineTimestamp\r\n        });\r\n\r\n        serviceCounter++;\r\n\r\n        emit ServiceOffered(\r\n            serviceId,\r\n            msg.sender,\r\n            _title,\r\n            _description,\r\n            _price,\r\n            _deadline\r\n        );\r\n        return serviceId;\r\n    }\r\n\r\n    /**\r\n     * @dev Allows clients to hire a freelancer and escrow payment\r\n     * @param _serviceId ID of the service to hire\r\n     */\r\n    function hireFreelancer(uint256 _serviceId) external payable nonReentrant {\r\n        Service storage service = services[_serviceId];\r\n\r\n        require(service.freelancer != address(0), \"Service does not exist\");\r\n        require(service.isActive, \"Service is not active\");\r\n        require(service.client == address(0), \"Service already hired\");\r\n        require(msg.value == service.price, \"Payment must match service price\");\r\n\r\n        service.client = msg.sender;\r\n        escrowedFunds[_serviceId] = msg.value;\r\n\r\n        emit FreelancerHired(_serviceId, msg.sender);\r\n    }\r\n\r\n    /**\r\n     * @dev Allows client to release payment to freelancer after work completion\r\n     * @param _serviceId ID of the service\r\n     */\r\n    function releasePayment(uint256 _serviceId) external nonReentrant {\r\n        Service storage service = services[_serviceId];\r\n\r\n        require(\r\n            service.client == msg.sender,\r\n            \"Only client can release payment\"\r\n        );\r\n        require(!service.isPaid, \"Payment already released\");\r\n        require(escrowedFunds[_serviceId] > 0, \"No funds in escrow\");\r\n        uint256 amount = escrowedFunds[_serviceId];\r\n\r\n        escrowedFunds[_serviceId] = 0;\r\n        service.isPaid = true;\r\n        service.isActive = false;\r\n\r\n        (bool success, ) = payable(service.freelancer).call{value: amount}(\"\");\r\n        require(success, \"Payment failed\");\r\n\r\n        emit PaymentReleased(_serviceId, service.freelancer, amount);\r\n    }\r\n    /**\r\n     * @dev Allows client to release payment to freelancer after work completion\r\n     * @param _serviceId ID of the service\r\n     */\r\n    function refundClient(uint256 _serviceId) external nonReentrant {\r\n        Service storage service = services[_serviceId];\r\n\r\n        require(service.client == msg.sender, \"Only client can request refund\");\r\n        require(!service.isPaid, \"Payment already released\");\r\n        require(escrowedFunds[_serviceId] > 0, \"No funds in escrow\");\r\n        require(\r\n            service.deadline < block.timestamp,\r\n            \"Refunds won't be issued before the deadline\"\r\n        );\r\n\r\n        uint256 amount = escrowedFunds[_serviceId];\r\n\r\n        escrowedFunds[_serviceId] = 0;\r\n        service.isActive = false;\r\n\r\n        (bool success, ) = payable(service.client).call{value: amount}(\"\");\r\n        require(success, \"Refund failed\");\r\n\r\n        emit ClientRefunded(_serviceId, service.client, amount);\r\n    }\r\n\r\n    /**\r\n     * @dev Allows the client to rate a service (only if payment was released).\r\n     * @param _serviceId ID of the service to rate.\r\n     * @param _rating Service rating value (must be between 1 and 5).\r\n     */\r\n    function rateService(\r\n        uint256 _serviceId,\r\n        uint8 _rating\r\n    ) external nonReentrant {\r\n        Service storage service = services[_serviceId];\r\n\r\n        require(\r\n            service.client == msg.sender,\r\n            \"Only client can rate the service\"\r\n        );\r\n        require(service.isPaid, \"Service payment not released yet\");\r\n        require(_rating >= 1 && _rating <= 5, \"Rating must be between 1 and 5\");\r\n        require(service.rating == 0, \"Service already rated\");\r\n\r\n        service.rating = _rating;\r\n\r\n        freelancerRatings[service.freelancer].total += _rating;\r\n        freelancerRatings[service.freelancer].count += 1;\r\n\r\n        emit ServiceRated(_serviceId, msg.sender, _rating);\r\n    }\r\n\r\n    /**\r\n     * @dev Returns the average rating of a freelancer.\r\n     * @param _freelancer Address of the freelancer.\r\n     * @return The average rating as an integer (0 if no ratings present).\r\n     */\r\n    function getAverageRating(\r\n        address _freelancer\r\n    ) external view returns (uint256) {\r\n        FreelancerRating memory rating = freelancerRatings[_freelancer];\r\n        if (rating.count == 0) {\r\n            return 0;\r\n        }\r\n        return rating.total / rating.count;\r\n    }\r\n\r\n    /**\r\n     * @dev Returns the number of ratings received by a certain freelancer.\r\n     * @param _freelancer Address of the freelancer.\r\n     * @return The number of ratings as an integer (0 if no ratings present).\r\n     */\r\n    function getRatingCount(\r\n        address _freelancer\r\n    ) external view returns (uint256) {\r\n        return freelancerRatings[_freelancer].count;\r\n    }\r\n\r\n    /**\r\n     * @dev Returns all listed services\r\n     */\r\n    function getServiceCount() external view returns (uint256) {\r\n        return serviceCounter;\r\n    }\r\n}\r\n",
  "sourcePath": "C:\\Users\\magic\\OneDrive\\Desktop\\New Folder\\SmartContractors-Freelance-Marketplace\\contracts\\FreelanceMarketplace.sol",
  "compiler": {
    "name": "solc",
    "version": "0.8.17+commit.8df45f5f.Emscripten.clang"
  },
  "schemaVersion": "3.4.16",
  "updatedAt": "2025-04-25T11:21:24.534Z",
  "networkType": "ethereum",
  "devdoc": {
    "kind": "dev",
    "methods": {
      "getAverageRating(address)": {
        "details": "Returns the average rating of a freelancer.",
        "params": {
          "_freelancer": "Address of the freelancer."
        },
        "returns": {
          "_0": "The average rating as an integer (0 if no ratings present)."
        }
      },
      "getRatingCount(address)": {
        "details": "Returns the number of ratings received by a certain freelancer.",
        "params": {
          "_freelancer": "Address of the freelancer."
        },
        "returns": {
          "_0": "The number of ratings as an integer (0 if no ratings present)."
        }
      },
      "getServiceCount()": {
        "details": "Returns all listed services"
      },
      "hireFreelancer(uint256)": {
        "details": "Allows clients to hire a freelancer and escrow payment",
        "params": {
          "_serviceId": "ID of the service to hire"
        }
      },
      "offerService(string,string,uint256,uint256)": {
        "details": "Allows freelancers to list their services",
        "params": {
          "_deadline": "Deadline in days from creation",
          "_description": "Description of the service",
          "_price": "Service cost in wei",
          "_title": "Short service title"
        }
      },
      "rateService(uint256,uint8)": {
        "details": "Allows the client to rate a service (only if payment was released).",
        "params": {
          "_rating": "Service rating value (must be between 1 and 5).",
          "_serviceId": "ID of the service to rate."
        }
      },
      "refundClient(uint256)": {
        "details": "Allows client to release payment to freelancer after work completion",
        "params": {
          "_serviceId": "ID of the service"
        }
      },
      "releasePayment(uint256)": {
        "details": "Allows client to release payment to freelancer after work completion",
        "params": {
          "_serviceId": "ID of the service"
        }
      }
    },
    "version": 1
  },
  "userdoc": {
    "kind": "user",
    "methods": {},
    "version": 1
  }
}